:020000040000FA
:20000000020E7E90F3BBE07B012222021E8D90F539E075F016A424D0F582E5F03405F58319
:20002000228C8375F002EF12057AE493FC74019322A424DCF582E5F03405F58322EF75F0F4
:200040000202057AF5828C83E0FE90F53AE022E0FCA3E0FDF5828C8322222202005EC0E0B0
:20006000C083C082C0D075D000C005C00690FC82E05403FDF090F527E04408F090F524E018
:20008000AE054EF0D006D005D0D0D082D083D0E032222202155C90F6C1E020E0030202FBBD
:2000A000E0FF1313543F20E00DE0FFC41313540320E00302019090F637E01460400460032D
:2000C0000202FB1202FC70030202FB9006C2121D514480F09006EEE493FE740193FFF5829C
:2000E0008E83E0547FF090F6C1121D6030E0088F828E83E04408F090F6370202BC12030985
:2001000070030202FB121D4E54F7F090F6C1121D6030E03290F603E01313543F30E0117FDB
:200120004612032390F603E054FBF012120D800790F6C0E04440F090F637E004F090F78EA1
:20014000E0547FF0801F7F6612032390F78CE054FBF090F6C0E04480F090F637E004F09013
:20016000F6367404F090FBFAE0FF90F3BBE070030202FBEF641C70030202FBE490F3B9F006
:2001800090F7B1F090F794E054F7F0E054FDF02290F636E0B4070040030202FB9001A3F8F9
:2001A0002828730201B802021202023402025B0202780202970202C090FBFBE0540FFFBFB2
:2001C000021390F785E020E00C7F57121D0290F788E04404F090F6CFE054FDF0E054FEF04C
:2001E00090F785E030E0257D0212032C70030202FB7F52121D027F4E121D027F30121D02CC
:20020000121D4E4480F090F6360202BC90F6360202BC7F4E121D027F31121D029006181216
:200220001D514440F0900614121D514440F090F6360202BC9005FC121D514408F01202FC65
:2002400070030202FB7F4E121D027F32121D02121D4E4408F090F6360202BC120309700386
:200260000202FB7F4E121D027F33121D02121D4E54F7F090F63680447D0312032C607C7F4A
:200280004E121D027F34121D029006C2121D51547FF090F6368025120316605F121D67304F
:2002A000E0177F4E121D027F35121D0290F78EE020E006121D4E54FEF090F636E004F022F8
:2002C0001203166036121D6730E01E7F4E121D027F36121D0290F78EE020E006121D4E44F9
:2002E00001F090F6C0E0547FF090F78EE054FEF090F636E004F0E490F637F0227B017AF6BE
:2003000079397D05121EF0EF227B017AF679397D37121EF0EF227B017AF679397D0A121EA0
:20032000F0EF22121D027F31121D02227B017AF67939121EF0EF22E709F608DFFA8046E745
:2003400009F208DFFA803E88828C83E709F0A3DFFA8032E309F608DFFA8078E309F208DF5C
:20036000FA807088828C83E309F0A3DFFA806489828A83E0A3F608DFFA805889828A83E0FC
:20038000A3F208DFFA804C80D280FA80C680D4806980F28033801080A680EA809A80A880C5
:2003A000DA80E280CA803389828A83ECFAE493A3C8C582C8CCC583CCF0A3C8C582C8CCC53A
:2003C00083CCDFE9DEE7800D89828A83E493A3F608DFF9ECFAA9F0EDFB2289828A83ECFA25
:2003E000E0A3C8C582C8CCC583CCF0A3C8C582C8CCC583CCDFEADEE880DB89828A83E49300
:20040000A3F208DFF980CC88F0EF60010E4E60C388F0ED2402B4040050B9F582EB2402B44C
:20042000040050AF232345822390038773BB010689828A83E0225002E722BBFE02E322897C
:20044000828A83E49322BB010B89828A83F8E0C828F0E822500327C722BBFE07F8E3C828E5
:20046000F3E8228A838982E49322BB010CE58229F582E5833AF583E0225006E92582F8E61F
:2004800022BBFE06E92582F8E222E58229F582E5833AF583E49322BB010689828A83F02249
:2004A0005002F722BBFE01F322F8BB010DE58229F582E5833AF583E8F0225006E92582C878
:2004C000F622BBFE05E92582C8F222C5F0F8A3E028F0C5F0F8E582158270021583E038F0D5
:2004E00022EF4BFFEE4AFEED49FDEC48FC22EB9FF5F0EA9E42F0E99D42F0E89C45F022E842
:20050000600FECC313FCED13FDEE13FEEF13FFD8F122E8600FEFC333FFEE33FEED33FDEC63
:2005200033FCD8F122E0FCA3E0FDA3E0FEA3E0FF22E0F8A3E0F9A3E0FAA3E0FB22ECF0A330
:20054000EDF0A3EEF0A3EFF022A8828583F0D083D082120560120560120560120560E4739F
:20056000E493A3C583C5F0C583C8C582C8F0A3C583C5F0C583C8C582C822A42582F582E5CD
:20058000F03583F58322E0FBA3E0FAA3E0F922EBF0A3EAF0A3E9F022E493FB740193FA7445
:2005A0000293F922D083D082F8E4937012740193700DA3A393F8740193F5828883E473744A
:2005C00002936860EFA3A3A380DF8A838982E4730000000000000000000000000000000018
:2005E000000000000000FC20FC10FC60FC00FC50FC40FC30FF30FF40FF50FF60FC21FC1181
:20060000FC61FC01FC51FC41FC31FF31FF41FF51FF61FC22FC12FC62FC02FC52FC42FC3267
:20062000FF32FF42FF52FF62FC23FC13FC63FC03FC53FC43FC33FF33FF43FF53FF63FC2405
:20064000FC14FC64FC04FC54FC44FC34FF34FF44FF54FF64FC25FC15FC65FC05FC55FC4518
:20066000FC35FF35FF45FF55FF65FC26FC16FC66FC06FC56FC46FC36FF36FF46FF56FF6687
:20068000FC27FC17FC67FC07FC57FC47FC37FF37FF47FF57FF67FC28FC18FC68FC08FC58C9
:2006A000FC48FC38FF38FF48FF58FF68FC29FC19FC69FC09FC59FC49FC39FF39FF49FF593B
:2006C000FF69FC2AFC1AFC6AFC0AFC5AFC4AFC3AFF3AFF4AFF5AFF6AFC2BFC1BFC6BFC0B48
:2006E000FC5BFC4BFC3BFF3BFF4BFF5BFF6BFC2CFC1CFC6C000000000000FC3C00000000FD
:2007000000000000FC2DFC1DFC6D000000000000FC3D0000000000000000FC2EFC1EFC6E47
:20072000000000000000FC3E0000000000000000FC2FFC1FFC6F000000000000FC3FFF3C58
:20074000FF4CFF5CFF6C000000000000000000000000FED1000000000000000000000000B9
:200760000000000000000000FED30000000000000000FED200000000000000000000F632B0
:200780000000000000000000FED400000000000000000000F633000000000000000000FF5F
:2007A0000000000000000000000000000000000000000000FF180061FF150005FF10000099
:2007C000FF110000FF120000FF130000FEA40000FE900020FE910030FE9200FFFE93002C8B
:2007E000FE940020FE9500FDFCA10000000000000000000000FF000000006D0300000000AB
:2008000061041B02000000004B005A045B022004000000000000000000000000000000002C
:200820000000000000000000000000000000000000000000000000000000000000000000B8
:20084000000000004C0E4D0E00000000520E530E1F001E0A00FF90F522E020E4030208E75D
:2008600090FFBDE090F52EF0E024D0602114602C24E960382498604214604824FB604F2403
:20088000B6705890FFBE740FF0E4A3F08052904001E49390FFBEF0904000800C904004E438
:2008A0009390FFBEF0904002E493802990F789E090FFBEF090F78AE0801B12172EA37455FA
:2008C000F0801DE490FFBEF0A37440F0801212172E90F220E090FFBFF0800512172EA3F00B
:2008E00090FF967408F02290FF967408F090FFBDE090F52EF090FFBEE090F525F090FFBFD0
:20090000E090F51FF090F52EE02449603E146064147003020997147003020A042465600341
:20092000020A0C90FFBEE090F63BF0E0FFD3947F4005747FF0800CEFC39405500690F63BE6
:200940007405F090F6CFE04410F02290F51FE090FBF3F090F525E024FE600B24FE600E24D6
:20096000036003020A0C90F2207401F02290F2207403F02290F51FE0FE90F525E07C0024F9
:2009800000FFEC3EFEE4FD90F22812053DE490F225F090F224F02290F224E0FFC3942150D1
:2009A0006BE490F220F0EF642090F525603DE0FF90F224E0FE2430F582E434F2F583EFF00D
:2009C00090F51FE0FF74312EF582E434F2F583EFF090F2501216CF2402FFE43EFEE43DFDBD
:2009E000E43CFC90F25012053D8005E090F222F090F224E02402F0E0B42211E4F090F220E3
:200A000074A5F02290F525E090F68AF02290F226E0600214F090F220E0B4A5227B017AF22C
:200A200079307D2012188090F221EFF090F222E090F220B50705745AF080037402F090F234
:200A400020E0645A6003020B3190F225E0146056046003020B87E4FFFE7D0290F2281216B9
:200A6000E0601F1216CC121722C0071216CC121728AD07E0D007121A60EF600690F225E0F9
:200A800004F07F0A121D027F62121D021216CC121722121B0C1216CC121728121B0C90F21E
:200AA0002BE0FF021B0C90F22C120549000000007F201216DA4003020B871216CC1217223E
:200AC000C0071216CC121728AD0790F22FE0FF90F22BE02FFB74302FF582E434F2F583E063
:200AE00090F53BF0D007121A017F1F1216DA70301216CC242090F2281216F090F228A3A318
:200B0000E0FEA3E0FFEE540FFEE4FDFCFBFAF9F8C31204EE700490F225F090F2207401F08A
:200B200090F22C1216CF240190F22C1216F0020AB090F220E06403704EFB7DC07F01121ADE
:200B4000607D01120B9060057DD0120B887D02120B90600E7DE0120B88E4FB7DF07F011239
:200B60001A60E490F220F07F0A121D027F46121D027F57121D027F6F121D027F6B121D0294
:200B800090F789E054BFF022E4FB7F01121A602290FBF3E0FF121F6CEF2290F535EEF0A3ED
:200BA000EFF0E4A3F090F53512004FC083C08290F537E0F9D082D08312003EE493FA7401CF
:200BC00093FBF44A7003020D0DEA54F8131313541F90F539F0EA5407A3F08D828C83E91239
:200BE000003E74019390F53BF0E490F538F090F538E0FFD394054003020D04A3E0FE12007D
:200C00001212003D7401937002E4937003020CFBEE6413600890F539E06414706990F5398C
:200C2000E0FF75F01612003112002A120044FD7401A805088002C333D8FCF4FC5EFE90F541
:200C400038E0FB90F53BE0FAA803088002C313D8FC5401FBA805088002C333D8FCFD4EFE6E
:200C600075F016EF120031E493FA740193F5828A83EEF0E05C4DFF12000E12002AF5828C05
:200C800083EFF0020CFB90F535E0FEA3E0F5828E83C083C08290F537E0D082D08312003E30
:200CA000E493700E90FBF1E0645A7004A3E064A5604912000EC083C08290F538E0FFD082E9
:200CC000D08375F002120027FD120044F97401A801088002C333D8FCF45EFE90F53BE0FB78
:200CE000A807088002C313D8FC5401FFA801088002C333D8FC4E8D828C83F090F538E004C3
:200D0000F0020BEE90F537E004F0020BA52290F7C0E06003020E757B01FD7F04120FABEFBE
:200D20006003020E1B90F638E004F0E07003E014F090F7CDE004F0700690F7CCE004F09007
:200D4000F7CCE07002A3E0700E90F7CDE024FFF090F7CCE034FFF090F7CCE0FAA3E0FBC372
:200D6000942CEA9401402590F78DE0C4540F20E01BE0FF13135401FDEF54FBFFED6401545F
:200D800001FE25E025E04FF0E04410F090F6C1E030E03190F78E121D6020E028121D5D2007
:200DA000E02290F6C1E01313543F20E009900704121D514402F0C3EB9490EA940140057FE2
:200DC0001312181790F6C1E020E006121D6A30E009121D5D20E003020E75121D4E4420F0FB
:200DE00090F638E0C394645003020E757B017D017F10120FABEF700790F785E04401F012D4
:200E00001D5D30E00890F68A7403F080057F011214C290F78EE04440F0805A90F638E0609B
:200E20005490F78DE054EFF0900704121D5154FDF090F703E054EFF090F78EE054BFF090B6
:200E4000F6C1E030E01EE0FF1313543F30E01590F78DE0547FF090F6CFE054FEF090F784D7
:200E6000E04404F090F6C1E020E00312100890F6C1E0547FF090F7C0E0600214F022E58602
:200E80004410F58675812190FC107420F090FF01E0B400028015B4F00FE58754DFF5879033
:200EA000FBE3E566F0020FA5020F5A90FBE07400F090FF1FE0B4261890FF00E0B4C008902E
:200EC000FF0F74FFF08009B4D00690FF0F74B8F090FEADE04404F0020F2590FE9574EDF0D7
:200EE00090FEA57464F090FC02E0547FF090FC12E04480F090FC22E04480F0787FE4F6D8A9
:200F0000FD90EC007FE07E10E4F0A3DFFCDEFA90FC22E0547FF090FC6BE04402F090FC3B1C
:200F2000E05402800C90FF0DE054F34404F0020EDA90FEA87400F090FEA974C0F090FEAADD
:200F40007401F090FEADE04409F090FEAC740BF090FEABE0B45A03020FA5020F9CE49040EA
:200F60002393FFA3E493FEBF000280010E90403078007900E493A3FA28F8EA69F9DFF5DE31
:200F8000F3E490402293C399701B7410FE904020E493A328F8DEF9C3E8B40009E587442053
:200FA000F587024030020FA8021CD5AC07EB7E0060047F0680027F00EF25E0FFEE33FE750A
:200FC000F016ECA424D0F582E5F03405F583E5822FF582E5833EF583121D51FB7A00AF05B6
:200FE00074017E00A807088005C333CE33CED8F9FFEE5AFEEF5B4E60047F0180027F002248
:20100000910D3F002041000090F63BE060030210FD12000360067D027F0B80047D017F0C6E
:20102000120FABEF60141210FE700F90F6C1E0131313541F30E0030210FD1210FE60030268
:2010400010FD12000360067D027F0B80047D017F0C120FABEF601590F606E030E0030210B1
:20106000FDE01313543F30E0030210FD12000360067D027F0B80047D017F0C120FABEF608C
:2010800005121109601FE4FFFE0FBF00010EBE01F8BF90F59006EEE493FE740193F5828EE1
:2010A00083E054DFF012000360067D027F0B80047D017F0C120FABEF6005121109603E901F
:2010C000F6C1E0C4131313540130E00A90FBF174A5F0A3745AF07F04121DB9120003600641
:2010E0007D027F0B80047D017F0C120FABEF600302100890FF14E04401F002100822E4FB4F
:201100007D037F03120FABEF22E4FB7D037F03120FABEF2274FF90F538F0A3F090F54CE0CE
:2011200054FDF074FF90F538F0A3F090FC86E030E35B7F0A121D027F49121D0290F54DE0F6
:20114000FF121B0C90F54CE030E00FA3E0FF64AE6008EF64AD6003121E7290F54DE0FF12C3
:2011600015D790F52FEFF0BFFF04E4F0807690F52FE0707090F533F090F54DE0FFC4540F70
:2011800075F003A42441F582E43419803790F533E0700690F52FE0604B7F44121D0290F5B9
:2011A0004BE0FF121B0C90F52FE090F54B702BE0FF90F533E0FEC4540F75F003A42471F59B
:2011C00082E43419F58312059889828A831205CE90F538EEF0A3EFF0800AE0FF12165290A8
:2011E000F52FEFF090F538E0F47003A3E0F4600F90F539E0FF90F532E0FDE4FB1218E19057
:20120000F54CE0FFC31320E003121E3A2290F6C0E0547FF0A3E0549AF0E0131313541F2053
:20122000E0047F0180027F00EF5401C454F0FF90F6C1E054EF4FF090F600E054F7F090F72D
:201240008BE054F7F090F78DE0547FF090F78CE01313543F90F78530E00DE04401F090F7C0
:201260008CE054FBF08004E054FEF0E490F636F090F4A5F090F601E054FDF0E054BFF0E405
:2012800090F60DF090F600E054FDF0E490F631F090F6A2F090F6C0E054BFF0E490F660F09E
:2012A00090F607E054FB121ED990F68AE0700312100812005990FBFAE0B41C0790F781E04D
:2012C00054BFF090F6C0E04401F090F700E054EFF02290F547EFF090F548EDF090F547E0F3
:2012E000FFEF1205A412EF521308590000137290F548E0FFEF64A4600302137A90F5497422
:2013000002F0A37480F0807290F548E0FFEF64F270477F52121D027F53121D027F54121DB3
:201320000290FBF1745AF0A374A5F090FF0174A5F090FE95E0FFEF547FFF90FE95EFF090D7
:20134000FEA774A3F090FEA57405F090F55474A5F090F549E4F0A3E4F090F548E0FFEFB4FB
:20136000F61890F68A7403F090F549E4F0A3E4F0800890F549E4F0A3E4F090F549E0FEA3DF
:20138000E0FF227E077FB4121B977E077FF6120B9A90FBF1E0B45A1AA3E0B4A515121F3544
:2013A0004420F090F63B7482F090F6C0E04401F0804490F3BBE07B0160067D027F0B800486
:2013C0007D017F0C120FABEF702C7B01FD7F04120FABEF701B90F6C1E0C4131313540120D2
:2013E000E00E121F354420F090F638740AF08006121F3554DFF07E177F3F120B9A90F6C1B9
:20140000E04410F0E490FBF1F0A3F090F60EE04480F090F6F6E4F0A374C8F0E490FBEEF031
:20142000A3F022E490F537F090F537E0FFC3940440030214C174262FF582E434F5F583E0B2
:2014400090F535F0E4A3F090F535E0606B90F535E020E009C313F0A3E004F080F0C2AF90B5
:20146000F537E0FF2426F582E434F5F583C083C082E0FE90F536E0FD7401A805088002C3B1
:2014800033D8FC6ED082D083F0D2AFEF75F018A424A1F582E43419F58375F003ED12057AE6
:2014A0001205981205CA90F535E0C313FFF0A3E004F0EF20E0A7808F90F537E004F002147B
:2014C000282290F538EFF090F781E0BF0F054440F0800354BFF090F6CFE054FDF0E054FEC9
:2014E000F090FBFBE0C454F0FFF090F538E0540F4F90FBFBF07F4F121D027F4E121D02904D
:20150000F538E0FF121B0C9006EEE493FE740193F5828E83E04420F090FC80E054FBF0900E
:20152000F6C0E0547DF0A3E054A3F0E04401F0E490F63CF090F601E0547FF090F607E05454
:20154000BF121ED990F4AFE0547FF090F7C07478F012000A90F6C0E054FEF022C0E0C0F0D4
:20156000C083C082C0D075D000C000C001C002C003C004C005C006C00790FF80E090F5344D
:20158000F090FF807401F090FF96E0541890F522F0E030E30C12085690FF99E0547FF08025
:2015A0001390FF80E4F090FF99E030E70790F528E04404F090F534E090FF80F0D007D00605
:2015C000D005D004D003D002D001D000D0D0D082D083D0F0D0E03290F53DEFF090F53DE0F2
:2015E000FF121AB990F53EEEF0A3EFF090F53EE0FEA3E0FFEEFF7E0090F540EFF090F540ED
:20160000E0FFEF1205A4161600161901162902164AFF0000164F7F002290F53DE0FF90F519
:2016200056EFF090F53DE0FF2290F53FE0FFEF54FFFF90F541EFF090F541E0FF7B007D018B
:201640001218E190F556E4F0800590F556E4F07FFF2290F542EFF090F556E0FF90F542E0F5
:20166000FD1212D290F543EEF0A3EFF090F543E0FEA3E0FFEEFF7E0090F545EFF090F54549
:20168000E0FFEF1205A4169600169901169F0216C1FF000016C97F002290F556E0FF2290EC
:2016A000F544E0FFEF54FFFF90F546EFF090F546E0FF7B007D011218E190F556E4F07F004B
:2016C0002290F556E4F07F00227FFF2290F228E0FCA3E0FDA3E0FEA3E022E4FEFD90F22C3F
:2016E000FCE0F8A3E0F9A3E0FAA3E0FBC30204EEFFE43EFEE43DFDE43CFC02053DEFF0A3C9
:20170000EDF0A3EBF090FEADE04409F02225E0FFED5480C413131354014F2290FEAC7404BA
:20172000F022FF78100204FFFF78080204FF90FFBE74FEF02290FEADE054F6F07F012200BF
:20174000000000000000000000000000000000000000000000000000000000000000000089
:201760000000000000000000005D0249020000000000000000000000008602000000000037
:20178000006B0273026803130200006F026904000012045F0314030000220480041A04832F
:2017A00000170371026C038104840400FF90F53512058FE490F53BF0121D9090F53BE0FFCF
:2017C000F58275830012046AF4604B121D908F82121D7D12046A90F53CF07E00EF2401FD3F
:2017E000EE33FC121D908D828C8312046AFD90F53CE05DFD8F828E83A3A312046A4DFF90B3
:20180000F53BE0F582121D7DEF1204A990F53BE02403F00217B82290F538EFF090F6C1E07A
:20182000FFC41313540320E056E030E052E490F637F090FBF7120525780812051290FBF756
:2018400012053D90FBF712053190F538E0FFE4FCFDFE1204E190FBF712053D90F6C1E044BB
:2018600040F07F53121D027F44121D0290F538E0FF121B0C90F603E054FBF0E04404F0228A
:2018800090F53BEDF090F538EBF0A3EAF0A3E9F012042DFFE4FE90F53BE0FDEEC39D503C7F
:2018A00090F538E0FBA3E0FAA3E0F912042DFDE4FCECC394085018EF30E70812170D640715
:2018C000FF8005EF12170DFF0CED25E0FD80E290F539E475F0011204CB0E80BAEF6480FF00
:2018E0002290F53AEFF07FE87E0390FC86E030E009EF1F70011EEF4E70F0EDB4010990FCC4
:2019000086E0541CF0802590FC86E054FC4420F0E0543CF090F523E0B40311AF03EFC4337E
:201920003354C0FF90FC86E054FC4FF090F53AE090FC85F07F4F121D0290F53AE0FF021B86
:201940000CFF1F8DFF1F8DFF1F8DFF1F8DFF1F8DFF1F8DFF1F8DFF1F8DFF1F8DFF1F8DFFCE
:201960001F8DFF1F8DFF1F8DFF1F8DFF1F8DFF1F8DFF1F8DFF1F8DFF1F8DFF1F8DFF1F8D0D
:20198000FF1F8DFF1F8DFF1F8DFF1F8DFF1F8DFF1F8DFF1F8DFF1F8DFF1F8DFF1F8DFF1F7B
:2019A0008DFF005AFF1F9AFF005AFF005AFF005AFF005AFF005AFF005AFF005AFF005AFFC2
:2019C000005AFF1F9DFF005AFF005AFF005AFF005AFF005AFF005AFF005AFF005AFF005AD1
:2019E000FF005AFF005AFF005AFF005AFF005AFF005AFF005AFF005AFF005AFF005AFF006E
:201A00005A90F5381216FD121DDBEF60037F002212171B90FEADE020E1F990FEAC7406F090
:201A200090FEADE020E1F990F538E090FEAAF090F539E090FEA9F090F53AE090FEA8F090B2
:201A4000F53BE090FEABF0A37402F090FEADE020E1F912171B90FEADE020E1F91217352256
:201A600090F5381216FD121DDBEF60037F002212171B90FEADE020E1F990FEAC7406F090FA
:201A8000FEADE020E1F990F538E090FEAAF090F539E090FEA9F090F53AE090FEA8F090FEE4
:201AA000AC7420F090FEADE020E1F912171B90FEADE020E1F91217352290F54EEFF090F5D1
:201AC0004EE0FFEF1205A41AD1521AE65900001AFB90F54EE0FF7E00EE4401FE90F54FEE61
:201AE000F0A3EFF0801D90F54EE0FF7E00EE4401FE90F54FEEF0A3EFF0800890F54FE4F012
:201B0000A3E4F090F54FE0FEA3E0FF2290F53BEFF0E0FFC4540FFEA3F0EF540F90F53BF0C0
:201B2000EED394094006A3E02437800690F53CE02430FF121D0290F53BE0FFD39409400524
:201B4000EF2437800690F53BE02430FF121D027F2C021D020100300200E003002C0400403F
:201B6000FF0000001300C51400021500032400FF0000011300C51400021500072400B0005E
:201B80000000FF0300D00C001722FF80FF0000700100430300D9FF90F535EEF0A3EFF0E423
:201BA000FF90F535E0FCA3E0F582120021FDF44C6020ED4C601890F53512004F12003D7417
:201BC0000393FE8D82120021F5828C83EEF00F0F80CF22C2AF784C7CF57D017B017AF579B4
:201BE000247E007F01120407E490F524F0D2AF90F54CE0FFC31330E00312111490F54CE027
:201C000030E003121E72021D29E4F5A890FF0DE054F04458F0121D96AFA8121B0C121F4430
:201C2000121F15121F52121F25121F03121C7290F551E0700790FC81E054BFF0D2AF2212DF
:201C40001F9690F51EE0FF04F0EF5403FF90F51EEFF090F51EE0FF04F0EF5403FFEF75F083
:201C600003A42460F582E4341FF5831205981205CA2290F5527410F090F5517401F0C28C8D
:201C8000438602E58954F04401F589758A3B758CF6C28DD2A9D28C121E5690FF01E0700342
:201CA0001213832290F68AE014601514600D14702390FBF1745AF0A374A5F07F051218170E
:201CC00090F68A7401F090F6C1E020E0077F04121DB980FE2290FF01E0B4F01E90FE8174A1
:201CE00003F090FE80E054804448F07F42121D027F42121D027F4C121D02121C0912142353
:201D000080FBEFB40A07740D121D0D740A309811A899B8130CC2983098FDA899C298B811E5
:201D2000F63099FDC299F59922C2AF90F524E0FF90F54CE0FEEF4E90F524F0E090F5277062
:201D400006E054F7F08004E04408F0D2AF229006EEE493FE740193F5828E83E02290F7818C
:201D6000E0C4131354032290F6C0E0C41313135401227B0190F53812058F7BFF2275830013
:201D800012046AFE90F5381205868E827583002290F535020586759BB9E4F59A75985290CF
:201DA000FC02E04440F090FC12E04440F0E0547FF090FC62E054BFF02290F553EFF090F50D
:201DC00053E0FF90FE82EFF090FE80E0FFEF5480FFEF4403FF90FE80EFF022E4FF90FEACD2
:201DE0007405F090FEADE020E1F990FEABE020E0037F00220FEFB405E47F012290FC71E08E
:201E0000FFEF4410FF90FC71EFF090F555E004F0120D0E120096121CA4121F882213000161
:201E200033FE0043FE00FF1500FF1000781100FF1200FF1300FF14FD00FF90F533E0700E3C
:201E400090F52FE0700890FC827404F0800090FC86E054FEF0227AFF7930121F777A1E794F
:201E60001D1217AD7AFF7900121F777A1E79270217AD90F524E0C31320E0117F4F121D0268
:201E80007F2C121D0290F54CE054FEF022C0E0C083C082758A3B758CF690F526E04402F03A
:201EA000D082D083D0E03290FE817403F090FE80E0FFEF5480FFEF4448FF90FE80EFF022ED
:201EC00090FE817403F090FE80E0FFEF5480FFEF4403FF90FE80EFF022F090FCA0E0FDE0C0
:201EE00054FDF0A3E054F8F0AF0590FCA0EDF0227401120446C39D4007E41204977F012258
:201F00007F0022E4F580F590F5B0D280D282D283D292D2B2227B017AFF7900121D747A1BF2
:201F200079830217AD7B017AFC7980121D747A1B798D0217AD9006EEE493FE740193F58278
:201F40008E83E0227AFE7990121D727A1B79540217AD7AFF7980121D727A1B79610217ADDC
:201F6000FF1F92FF0091FF0092FF1FA0EF5D60047F0180027F00227B0190F53812058F7B25
:201F8000FF22121C3F7FFF2290F6C1E0227EFF7FFF22121DFC22120A0D22021F82021BD382
:201FA00022FFFFFFFFFFFFFFFFFFFFFFFFFFFFFFFFFFFFFFFFFFFFFFFFFFFFFFFFFFFFFF1E
:201FC000FFFFFFFFFFFFFFFFFFFFFFFFFFFFFFFFFFFFFFFFFFFFFFFFFFFFFFFFFFFFFFFF21
:201FE000FFFFFFFFFFFFFFFFFFFFFFFFFFFFFFFFFFFFFFFFFFFFFFFFFFFFFFFFFFFFFFFF01
:20200000FFFFFFFFFFFFFFFFFFFFFFFFFFFFFFFFFFFFFFFFFFFFFFFFFFFFFFFFFFFFFFFFE0
:20202000FFFFFFFFFFFFFFFFFFFFFFFFFFFFFFFFFFFFFFFFFFFFFFFFFFFFFFFFFFFFFFFFC0
:204000003F002041000850484A30300000000000FEFEFE41FEFE4B42393330FE0000000058
:20402000100B6BB8A9000000000000000000000002E87A90FF99E0FF90ECA4EFF090FF9808
:20404000E0FFEF547FFF90ECA5EFF090ECA4E0FFEF30E63290FFBDE0FF90F485EFF090FFE8
:20406000BEE0FF90F486EFF090FFBFE0FF90F487EFF012807990FF99E0FFEF54BFFF90FF01
:2040800099EFF07FFF2290F93AE0FFEF30E61690ECA4749AF090F93AE0FFEF54BFFF90F901
:2040A0003AEFF0804F90F904E0FFEF641A600A90F904E0FFEF642A703B90ECA4E0FFEF60F3
:2040C0001390ECA4E0FFEF64A0600990ECA4E0FFEFB4800690ECA47480F090FF99E0FFEF50
:2040E00054DFFF90FF99EFF090ECA4E0FFEFB43A037FFF2290F904E0FFEF641A7003024278
:20410000DD90F904E0FFEF642A70030242DD90ECA4E0FFEF20E50302425B90ECA5E0FFEFC1
:2041200012638641BF0A412D0B0000424A90ECA1E4F090ECA1E0FFEFC39408507290F900EF
:20414000E0FFEF30E73790ECA1E0FF749C2FF582E434FFF583E0FF90ECA1E0FEEEFD7C00C1
:2041600090F93CE0FEEEFB7A00EB2DFDEA3CFC74642DF58274F43CF583EFF0802A90ECA1C4
:20418000E0FF749C2FF582E434FFF583E0FF90ECA1E0FE90F93CE0FDED2EFE74022EF5824B
:2041A000E434F8F583EFF090ECA1E004F0808390F93CE02408F090F93B740DF002424A9090
:2041C000F93CE02408F090ECA1E4F090ECA1E0FFEFC39408506E90F900E0FFEF30E7339084
:2041E000ECA1E0FF7E0090F93CE0FD7C00ED2FFFEC3EFE74642FF58274F43EF583E0FF9069
:20420000ECA1E0FE749C2EF582E434FFF583EFF0802A90ECA1E0FF90F93CE0FEEE2FFF7437
:20422000062FF582E434F9F583E0FF90ECA1E0FE749C2EF582E434FFF583EFF090ECA1E04F
:2042400004F0808790F93B740DF090ECA4E0FFEF54DFFF90FF99EFF00242DD90ECA1E4F0F5
:2042600090ECA1E0FFEFC39408507290F900E0FFEF30E73790ECA1E0FF749C2FF582E434C3
:20428000FFF583E0FF90ECA1E0FEEEFD7C0090F93CE0FEEEFB7A00EB2DFDEA3CFC74642D24
:2042A000F58274F43CF583EFF0802A90ECA1E0FF749C2FF582E434FFF583E0FF90ECA1E0C5
:2042C000FE90F93CE0FDED2EFE74022EF582E434F8F583EFF090ECA1E004F0808390ECA48F
:2042E000E0FFEF20E70302465990F900E0FFEF30E76690FF98E0FF90F460EFF090FF9AE09F
:20430000FF90F462EFF090FF9BE0FF90F463EFF090FFBCE0FF90F484EFF090FFBDE0FF903E
:20432000F485EFF090FFBEE0FF90F486EFF090FFBFE0FF90F487EFF090ECA4E0FFEF547F38
:20434000FFEF700890F4617480F0802D90FF99E0FF90F461EFF0802190ECA4E0FFEF549F34
:20436000FF90F800EFF090FFBCE0FF90F801EFF07B017AF8790012DFFF90F900E0FFEF5443
:204380007FFF90ECA2EFF090ECA1E4F090F939E0FF90ECA1E0FEEEC39F505A90ECA2E0FF1E
:2043A00090ECA1E0FEEE2FFF90ECA3EFF090ECA3E0FFEFC39438401390ECA1E0FF74002F7A
:2043C000F582E434F9F583E4F0802290ECA3E0FF74002FF582E434F9F583E0FF90ECA1E0EA
:2043E000FE74002EF582E434F9F583EFF090ECA1E004F0809790FF99E4F090F939E0FF9009
:20440000ECA2E0FEC3EF9EFF90F939EFF090F938E0FF90ECA2E0FEC3EF9EFF90F938EFF0B5
:2044200090F93AE0FFEF54FEFF90F93AEFF090F939E0FFEF701190F93AE0FFEF547FFF90F4
:20444000F93AEFF002465490F93AE0FFEF30E50302465490F900E0FFEF30E71E90F485E0F4
:20446000FF90FFBDEFF090F486E0FF90FFBEEFF090F487E0FF90FFBFEFF090FF93E0FFEFF6
:2044800054F4FF90ECA3EFF090ECA3E0FF90F901E0FE7401A806088002C333D8FCFEEF4EBF
:2044A000FF90ECA3EFF090ECA3E0FF90FF93EFF090F902E0FF90FF9BEFF090F903E0FF9092
:2044C000FF9AEFF090F905E0FF90FFBCEFF090F905E0FF90ECA2EFF090F905E0FFEFD394A0
:2044E00008400690ECA27408F090ECA1E4F090ECA2E0FF90ECA1E0FEEEC39F502A90ECA114
:20450000E0FF74062FF582E434F9F583E0FF90ECA1E0FE749C2EF582E434FFF583EFF09086
:20452000ECA1E004F080C790FF99E4F090F904E0FFEF641A600302460B90FF947406F0902B
:20454000FF93E0FFEF4408FF90FF93EFF0C2AF90F904E0FFEF540FFF90FF98EFF090ECA15E
:204560007480F090ECA1E0FFEF601E90ECA27401F090ECA2E0FFEF600890ECA2E014F08095
:20458000F090ECA1E014F080DA90F90EE0FF90FF9CEFF090ECA174FFF090ECA274FFF090BF
:2045A000FF99E0FFEF20E52490ECA2E0FFEF701490ECA274FFF090ECA1E014F090ECA1E07D
:2045C000FFEF600890ECA2E014F080D390ECA17401F090ECA1E0FFEFC39408502A90ECA1CD
:2045E000E0FF740E2FF582E434F9F583E0FF90ECA1E0FE749C2EF582E434FFF583EFF0909E
:20460000ECA1E004F080CBD2AF803590F904E0FFEFB42A1C90FF947406F090FF93E0FFEFE6
:204620004408FF90FF93EFF090FF98740AF0801090FF947406F090F904E0FF90FF98EFF00A
:2046400090F93AE0FFEF4480FF90F93AEFF090F93B740DF090F93CE4F0C2AF90FF80E0FF37
:20466000EF4401FF90FF80EFF0D2AF90FF99E0FF90ECA4EFF090FF98E0FFEF547FFF90EC4F
:20468000A5EFF090ECA4E0FFEF30E64490FFBDE0FF90F485EFF090FFBEE0FF90F486EFF026
:2046A00090FFBFE0FF90F487EFF012807A90FF99E0FFEF54BFFF90FF99EFF0C2AF90FF8048
:2046C000E0FFEF54FEFF90FF80EFF0D2AF7FFF2290F97AE0FFEF30E61690ECA4749AF09001
:2046E000F97AE0FFEF54BFFF90F97AEFF0806190F944E0FFEF641A600A90F944E0FFEF6422
:204700002A704D90ECA4E0FFEF601390ECA4E0FFEF64A0600990ECA4E0FFEFB4800690EC52
:20472000A47480F090FF99E0FFEF54DFFF90FF99EFF090ECA4E0FFEFB43A15C2AF90FF8051
:20474000E0FFEF54FEFF90FF80EFF0D2AF7FFF2290F944E0FFEF641A700302493990F9444E
:20476000E0FFEF642A700302493990ECA4E0FFEF20E5030248B790ECA5E0FFEF12638648BD
:204780001B0A47890B000048A690ECA1E4F090ECA1E0FFEFC39408507290F940E0FFEF3067
:2047A000E73790ECA1E0FF749C2FF582E434FFF583E0FF90ECA1E0FEEEFD7C0090F97CE074
:2047C000FEEEFB7A00EB2DFDEA3CFC74642DF58274F43CF583EFF0802A90ECA1E0FF749C14
:2047E0002FF582E434FFF583E0FF90ECA1E0FE90F97CE0FDED2EFE742A2EF582E434F8F567
:2048000083EFF090ECA1E004F0808390F97CE02408F090F93B740DF00248A690F97CE02413
:2048200008F090ECA1E4F090ECA1E0FFEFC39408506E90F940E0FFEF30E73390ECA1E0FFAA
:204840007E0090F93CE0FD7C00ED2FFFEC3EFE74642FF58274F43EF583E0FF90ECA1E0FE03
:20486000749C2EF582E434FFF583EFF0802A90ECA1E0FF90F93CE0FEEE2FFF74462FF58250
:20488000E434F9F583E0FF90ECA1E0FE749C2EF582E434FFF583EFF090ECA1E004F080879A
:2048A00090F93B740DF090ECA4E0FFEF54DFFF90FF99EFF002493990ECA1E4F090ECA1E02A
:2048C000FFEFC39408507290F940E0FFEF30E73790ECA1E0FF749C2FF582E434FFF583E0C3
:2048E000FF90ECA1E0FEEEFD7C0090F97CE0FEEEFB7A00EB2DFDEA3CFC74642DF58274F4F6
:204900003CF583EFF0802A90ECA1E0FF749C2FF582E434FFF583E0FF90ECA1E0FE90F97C3A
:20492000E0FDED2EFE742A2EF582E434F8F583EFF090ECA1E004F0808390ECA4E0FFEF20D5
:20494000E703024CB590F940E0FFEF30E76690FF98E0FF90F460EFF090FF9AE0FF90F4629F
:20496000EFF090FF9BE0FF90F463EFF090FFBCE0FF90F484EFF090FFBDE0FF90F485EFF065
:2049800090FFBEE0FF90F486EFF090FFBFE0FF90F487EFF090ECA4E0FFEF547FFFEF7008C4
:2049A00090F4617480F0802D90FF99E0FF90F461EFF0802190ECA4E0FFEF549FFF90F82885
:2049C000EFF090FFBCE0FF90F829EFF07B017AF8792812DFFF90FF99E4F090F940E0FFEF2C
:2049E000547FFF90ECA2EFF090ECA1E4F090F979E0FF90ECA1E0FEEEC39F505A90ECA2E023
:204A0000FF90ECA1E0FEEE2FFF90ECA3EFF090ECA3E0FFEFC39438401390ECA1E0FF744003
:204A20002FF582E434F9F583E4F0802290ECA3E0FF74402FF582E434F9F583E0FF90ECA1F4
:204A4000E0FE74402EF582E434F9F583EFF090ECA1E004F0809790F979E0FF90ECA2E0FED2
:204A6000C3EF9EFF90F979EFF090F978E0FF90ECA2E0FEC3EF9EFF90F978EFF090F97AE018
:204A8000FFEF54FEFF90F97AEFF090F979E0FFEF701190F97AE0FFEF547FFF90F97AEFF01F
:204AA000024CB090F97AE0FFEF30E503024CB090F940E0FFEF30E71E90F485E0FF90FFBD11
:204AC000EFF090F486E0FF90FFBEEFF090F487E0FF90FFBFEFF090FF93E0FFEF54F4FF9004
:204AE000ECA3EFF090ECA3E0FF90F941E0FE7401A806088002C333D8FCFEEF4EFF90ECA3D2
:204B0000EFF090ECA3E0FF90FF93EFF090F942E0FF90FF9BEFF090F943E0FF90FF9AEFF051
:204B200090F945E0FF90FFBCEFF090F945E0FF90ECA2EFF090F945E0FFEFD3940840069013
:204B4000ECA27408F090ECA1E4F090ECA2E0FF90ECA1E0FEEEC39F502A90ECA1E0FF7446F2
:204B60002FF582E434F9F583E0FF90ECA1E0FE749C2EF582E434FFF583EFF090ECA1E00408
:204B8000F080C790FF99E4F090F944E0FFEF641A6003024C6790FF947406F090FF93E0FF23
:204BA000EF4408FF90FF93EFF0C2AF90F944E0FFEF540FFF90FF98EFF090ECA17480F090B5
:204BC000ECA1E0FFEF601E90ECA27401F090ECA2E0FFEF600890ECA2E014F080F090ECA196
:204BE000E014F080DA90F94EE0FF90FF9CEFF090ECA174FFF090ECA274FFF090FF99E0FFAF
:204C0000EF20E52490ECA2E0FFEF701490ECA274FFF090ECA1E014F090ECA1E0FFEF600837
:204C200090ECA2E014F080D390ECA17401F090ECA1E0FFEFC39408502A90ECA1E0FF744E1B
:204C40002FF582E434F9F583E0FF90ECA1E0FE749C2EF582E434FFF583EFF090ECA1E00427
:204C6000F080CBD2AF803590F944E0FFEFB42A1C90FF947406F090FF93E0FFEF4408FF90D6
:204C8000FF93EFF090FF98740AF0801090FF947406F090F944E0FF90FF98EFF090F97AE05C
:204CA000FFEF4480FF90F97AEFF090F97B740DF090F97CE4F0C2AF90FF80E0FFEF54FEFF74
:204CC00090FF80EFF0D2AF7FFF2290F9C2E0F4705590FA03E0700B90FC80E054EFF07F015A
:204CE000803F90FC80E054DFF0E490EC07F090EC07E0FFC394045027746D2F12A3F154074A
:204D0000FFBF021390EC0712A48D8002C333D8FCFF90F9D6E04FF090EC07E004F080CF7F0C
:204D20000212E0F4801790F9C2E090F9D5F0E0246D12A3F154076402600312A4D690F9D556
:204D4000E0F47003024FD890F9F57401F07F7812E8BE90F9D5E0FC7410A804088002C33367
:204D6000D8FCFE12A4E84EF0746D2C12A3F1540764016003024E3190F9D9F090F9D7E0702C
:204D80007490FA7DF090FA02E02413603924FD604124FD604724F5604D14600D240D704FAB
:204DA00090F9D87403F0024FBE90F9D87402F0E490F9E4F090F9E504F090FCA1E054F8F069
:204DC00012BDDD024FBE90F9E3E0543FF04440F0800A12A43590FA04F0024FBE12A4359058
:204DE000FA7FF0024FBE90FA7D12A438024FBE12A4FD024FBE90F9E3E0FF54C0FEBE400C0E
:204E0000EF543FF090FA02E090F9E4F0E490FA7FF090F9D804F090FA04E0B4010EE4F09090
:204E2000FA02E0700690F9D87402F090F9D7024FBBE490F9D9F090F9FBE06003024F879088
:204E4000FAC2F090F692741EF090FA02E01263864E81E64E8AE74E93E84EA3E94EACEA4E5C
:204E6000B5EC4EBEEE4EC7F04ED0F24EDEF34EEEF44EF7F54F00F64F15FE4F1EFF00004F97
:204E80007712A3FA54FDF0024F7A12A3FA4402F0024F7A90F9FB12A43890F9E6E04408F033
:204EA000024F7A90F9D87404F0024F7A12A3FA4440F0024F7A12A3FA54DFF0024F7A12A353
:204EC000FA4420F0024F7A12A3FA4410F0024F7A90F9C77401F090F9D804F0024F7A90F99D
:204EE000FB12A43890F9E6E04404F0024F7A12A3FA4401F0024F7A12A3FA54FEF0024F7A0C
:204F000012A3FA4480FFF0E412A473EF54FD90F9E6F0024F7A90FAC212A438024F7A90F62D
:204F2000927464F090F9D87403F090F9F27401F0E490F9E6F090EC07F090EC07E0FFC39400
:204F400004501E746D2F12A3F1FF5407FEBE020990EC0712A3DF4430F090EC07E004F080B6
:204F6000D812A423E412A46F90F9E0E0C45403FFBF0207E4F0800312A4FD90F9C2E0F470B3
:204F80003D90F9F0F0803790F9E6E0FF30E30F90FA02E090F9E9F0EF54F790F9E6F090F954
:204FA000E6E0FF30E20F90FA02E090F9EAF0EF54FB90F9E6F012A4FD90F9FBE014F090F9FB
:204FC000D512A48D8002C333D8FCFF90EC07F090FEE2E0540F4FF02290F9C2E0B4FF0B906E
:204FE000FA03E07FFC700502E8D27FFE12E826227B017AFE790012DEC67AB379AF02CA74B1
:205000005AA501430AFF03FF03FF06FF05FF05E8CD634344FF323C44FF7759FF7457FFAE9C
:20502000FF000000FF00FF090D004208010001E00064FFFFFF64FFFFFF6964FFFFFF90EC29
:205040003BEFF090EC3CEDF090EC3DEBF090EC46E4F090EC3EE0FFEF547FFFEFC394024095
:205060001590EC3EE0FFEF547FFFEFD3940D500690EC467401F090EC3EE0FFEF641A600972
:2050800090EC3EE0FFEFB42A0690EC467401F090EC3EE0FFEF540FFFEFB40B0590EC3FE441
:2050A000F090EC3BE0FFEFC39402400302544F90EC46E0FFEF700302581090EC3FE0FF7EB5
:2050C0000090F939E0FD7C00ED2FFFEC3EFEEF2406FFEE3400FED3EF9438EE648094804086
:2050E0001590F93AE0FFEF4481FF90F93AEFF090F461749AF02290F93AE0FFEF54FEFF902D
:20510000F93AEFF090EC3FE0FFEF2406FF90F939E02FF090EC3FE0FFEF2406FF90F938E0B7
:20512000FE74002EF582E434F9F583EFF090F93AE0FFEF30E11790F938E0FF74002FF5827D
:20514000E434F9F583E0FFEF4480FFEFF090EC3BE0FF90F938E0FE74012EF582E434F9F501
:2051600083EFF090EC3CE0FF90F938E0FE74022EF582E434F9F583EFF090EC3DE0FF90F9F3
:2051800038E0FE74032EF582E434F9F583EFF090EC3EE0FF90F938E0FE74042EF582E43408
:2051A000F9F583EFF090EC3FE0FF90F938E0FE74052EF582E434F9F583EFF090F938E0241B
:2051C00006F090EC43E4F090EC3FE0FF90EC43E0FEEEC39F503590EC4012636890EC43E002
:2051E000FF8F82758300126044FF90EC43E0FE90F938E0FDED2EFE74002EF582E434F9F57F
:2052000083EFF090EC43E004F080BC90EC3FE0FF90F938E02FF090F93AE0FFEF30E5030258
:20522000581090FF95E0FFEF30E70302544090F93AE0FFEF30E70302544090F93AE0FFEF92
:2052400030E11E90F485E0FF90FFBDEFF090F486E0FF90FFBEEFF090F487E0FF90FFBFEFD0
:20526000F090FF93E0FFEF54F4FF90EC45EFF090EC45E0FF90F901E0FE7401A806088002B2
:20528000C333D8FCFEEF4EFF90EC45EFF090EC45E0FF90FF93EFF090F902E0FF90FF9BEF46
:2052A000F090F903E0FF90FF9AEFF090F905E0FF90FFBCEFF090F905E0FF90EC44EFF09058
:2052C000F905E0FFEFD39408400690EC447408F090EC43E4F090EC44E0FF90EC43E0FEEE64
:2052E000C39F502A90EC43E0FF74062FF582E434F9F583E0FF90EC43E0FE749C2EF582E476
:2053000034FFF583EFF090EC43E004F080C790FF99E4F090F904E0FFEF641A60030253F2AA
:2053200090FF947406F090FF93E0FFEF4408FF90FF93EFF0C2AF90F904E0FFEF540FFF90E6
:20534000FF98EFF090EC437480F090EC43E0FFEF601E90EC447401F090EC44E0FFEF60080E
:2053600090EC44E014F080F090EC43E014F080DA90F90EE0FF90FF9CEFF090EC4374FFF07A
:2053800090EC4474FFF090FF99E0FFEF20E52490EC44E0FFEF701490EC4474FFF090EC43D7
:2053A000E014F090EC43E0FFEF600890EC44E014F080D390EC437401F090EC43E0FFEFC3A9
:2053C0009408502A90EC43E0FF740E2FF582E434F9F583E0FF90EC43E0FE749C2EF582E453
:2053E00034FFF583EFF090EC43E004F080CBD2AF803590F904E0FFEFB42A1C90FF9474061D
:20540000F090FF93E0FFEF4408FF90FF93EFF090FF98740AF0801090FF947403F090F90424
:20542000E0FF90FF98EFF090F93CE4F090F93AE0FFEF4480FF90F93AEFF090F93B740DF0C3
:2054400090F93AE0FFEF54FDFF90F93AEFF02290EC46E0FFEF700302581090FF80E0FFEF5D
:205460004401FF90FF80EFF090EC3FE0FF7E0090F979E0FD7C00ED2FFFEC3EFEEF2406FF2C
:20548000EE3400FED3EF9438EE64809480401790F97AE0FFEF4481FF90F97AEFF090F461C5
:2054A000749AF002580290F97AE0FFEF54FEFF90F97AEFF090EC3FE0FFEF2406FF90F979DA
:2054C000E02FF090EC3FE0FFEF2406FF90F978E0FE74402EF582E434F9F583EFF090F97A78
:2054E000E0FFEF30E11790F978E0FF74402FF582E434F9F583E0FFEF4480FFEFF090EC3BCC
:20550000E0FF90F978E0FE74412EF582E434F9F583EFF090EC3CE0FF90F978E0FE74422EB1
:20552000F582E434F9F583EFF090EC3DE0FF90F978E0FE74432EF582E434F9F583EFF090C1
:20554000EC3EE0FF90F978E0FE74442EF582E434F9F583EFF090EC3FE0FF90F978E0FE74B1
:20556000452EF582E434F9F583EFF090F978E02406F090EC43E4F090EC3FE0FF90EC43E012
:20558000FEEEC39F503590EC4012636890EC43E0FF8F82758300126044FF90EC43E0FE9016
:2055A000F978E0FDED2EFE74402EF582E434F9F583EFF090EC43E004F080BC90EC3FE0FF5A
:2055C00090F978E02FF090F97AE0FFEF30E50302580290FF95E0FFEF30E7030257F490F9A4
:2055E0007AE0FFEF30E7030257F490F97AE0FFEF30E11E90F485E0FF90FFBDEFF090F486DF
:20560000E0FF90FFBEEFF090F487E0FF90FFBFEFF090FF93E0FFEF54F4FF90EC45EFF09001
:20562000EC45E0FF90F941E0FEEE5401FE7401A806088002C333D8FCFEEF4EFF90EC45EF10
:20564000F090EC45E0FF90FF93EFF090F942E0FF90FF9BEFF090F943E0FF90FF9AEFF090C3
:20566000F945E0FF90FFBCEFF090F945E0FF90EC44EFF090F945E0FFEFD39408400690ECCA
:20568000447408F090EC43E4F090EC44E0FF90EC43E0FEEEC39F502A90EC43E0FF74462F3A
:2056A000F582E434F9F583E0FF90EC43E0FE749C2EF582E434FFF583EFF090EC43E004F0B8
:2056C00080C790FF99E4F090F944E0FFEF641A60030257A690FF947406F090FF93E0FFEF8F
:2056E0004408FF90FF93EFF0C2AF90F944E0FFEF540FFF90FF98EFF090EC437480F090ECCB
:2057000043E0FFEF601E90EC447401F090EC44E0FFEF600890EC44E014F080F090EC43E02C
:2057200014F080DA90F94EE0FF90FF9CEFF090EC4374FFF090EC4474FFF090FF99E0FFEF10
:2057400020E52490EC44E0FFEF701490EC4474FFF090EC43E014F090EC43E0FFEF600890C3
:20576000EC44E014F080D390EC437401F090EC43E0FFEFC39408502A90EC43E0FF744E2FA9
:20578000F582E434F9F583E0FF90EC43E0FE749C2EF582E434FFF583EFF090EC43E004F0D7
:2057A00080CBD2AF803590F944E0FFEFB42A1C90FF947406F090FF93E0FFEF4408FF90FF7C
:2057C00093EFF090FF98740AF0801090FF947403F090F944E0FF90FF98EFF090F97CE4F01D
:2057E00090F97AE0FFEF4480FF90F97AEFF090F97B740DF090F97AE0FFEF54FDFF90F97A9A
:20580000EFF090FF80E0FFEF54FEFF90FF80EFF02290EC20EFF090EC21ECF0A3EDF090EC7B
:2058200023EBF090EC23E0FFEF1263865842005842015AB8025AB8035CFF045CFF050000E5
:205840005F1090EC20E0FFEF7003025A5A90EC21E0FEA3E0FFD3EF940EEE9400501190EC86
:2058600024740CF090EC28E4F0A374FAF0807190EC21E0FEA3E0FFD3EF9440EE94005012B3
:2058800090EC247408F090EC28740FF0A374A0F0804E90EC21E0FEA3E0FFD3EF94A0EE94FB
:2058A0000F501190EC247404F090EC287440F0A3E4F0802C90EC24E4F090EC2874FAF0A3EC
:2058C000E4F090EC21E0FEA3E0FFEEC4F854F0C868FEEFC4540F48FF90EC21EEF0A3EFF081
:2058E00090EC23E0FF90EC25EFF090EC25E0FFEF25E025E0FF90EC25EFF090EC24E0FF90A3
:20590000EC25E0FEEFA806088002C333D8FCFF90EC24EFF090EC25E0FF74F0A8070880020C
:20592000C313D8FCFF90FE00E0FEEF5EFF90EC26EFF090FE00E0FFEF5411FF90EC26E0FE45
:20594000EF4EFF90EC26EFF090EC26E0FF90EC24E0FEEE4FFF90FE00EFF090EC23E0FF90D4
:20596000EC25EFF090EC25E0FFEF25E0FF90EC25EFF090EC21E0FCA3E0FD90EC28E0FEA326
:20598000E0FF1260D9EF24FFFFEE34FFFE90EC28EEF0A3EFF090EC29E0FF90EC25E0FE7432
:2059A000022EF582E434FEF583EFF090EC20E0FF7E0090EC28E0FCA3E0FD1260C790EC28FD
:2059C000EEF0A3EFF090EC28E0FEA3E0FF7C007D641260D990EC28EEF0A3EFF090EC29E032
:2059E000FF90EC25E0FE74012EF582E434FEF583EFF090EC23E0FFEF701090FE00E0FFEF59
:205A00004401FF90FE00EFF0800E90FE00E0FFEF4410FF90FE00EFF090EC23E0FFEF701D31
:205A200090FC01E0FFEF4480FF90FC01EFF090FC11E0FFEF547FFF90FC11EFF02290FC0273
:205A4000E0FFEF4401FF90FC02EFF090FC12E0FFEF54FEFF90FC12EFF02290EC23E0FFEFFE
:205A6000702B90FC01E0FFEF547FFF90FC01EFF090FC21E0FFEF547FFF90FC21EFF090FC8D
:205A800011E0FFEF4480FF90FC11EFF02290FC02E0FFEF54FEFF90FC02EFF090FC22E0FF1F
:205AA000EF54FEFF90FC22EFF090FC12E0FFEF4401FF90FC12EFF02290EC20E0FFEF705F91
:205AC00090EC23E0FFEFB4022B90FC02E0FFEF54FBFF90FC02EFF090FC22E0FFEF54FBFF97
:205AE00090FC22EFF090FC12E0FFEF4404FF90FC12EFF02290FC02E0FFEF54F7FF90FC0293
:205B0000EFF090FC22E0FFEF54F7FF90FC22EFF090FC12E0FFEF4408FF90FC12EFF022906D
:205B2000EC20E0FFEF6464705F90EC23E0FFEFB4022B90FC02E0FFEF54FBFF90FC02EFF08F
:205B400090FC22E0FFEF4404FF90FC22EFF090FC12E0FFEF4404FF90FC12EFF02290FC0215
:205B6000E0FFEF54F7FF90FC02EFF090FC22E0FFEF4408FF90FC22EFF090FC12E0FFEF449C
:205B800008FF90FC12EFF02290EC23E0FFEF24FEFF90EC27EFF090EC27E0FF75F010EF90D9
:205BA000FE2012635CE0FFEF54CFFFEFF090EC27E0FF75F010EF90FE2012635CE0FFEF44B0
:205BC00030FFEFF090EC21E0FEA3E0FFAB07AA06E4F9F87F007EC87DAF7C0012621D90EC09
:205BE0002A12631F90EC2A12630778081262CDEF54FFFFEE5400FEED5400FDEC5400FC9079
:205C0000EC27E0FE75F010EE90FE2A12635CEFF090EC2A126307EF54FFFFEE5400FEED54E4
:205C200000FDEC5400FC90EC27E0FE75F010EE90FE2B12635CEFF090EC2A126307EF54FF7A
:205C4000FFEE54FFFEED5400FDEC5400FCAD07AC0690EC20E0FF7E001260C77C007D641285
:205C600060D990EC28EEF0A3EFF090EC28E0FEA3E0FFD3EF9400EE9410400A90EC28740F8A
:205C8000F0A374FFF090EC28E0FEA3E0FFEEFF7E0090EC27E0FE75F010EE90FE2612635C36
:205CA000EFF090EC29E0FFEF54FFFF90EC27E0FE75F010EE90FE2712635CEFF090EC23E078
:205CC000FFEFB4021D90FC02E0FFEF4404FF90FC02EFF090FC12E0FFEF54FBFF90FC12EFAC
:205CE000F02290FC02E0FFEF4408FF90FC02EFF090FC12E0FFEF54F7FF90FC12EFF0229099
:205D0000EC20E0FFEF7003025EB290EC247440F090EC2A12632B000FF5F090EC23E0FFEF39
:205D2000B4041490FE06E0FF90EC24E0FEEF4EFF90FE06EFF0801290FE07E0FF90EC24E071
:205D4000FEEF4EFF90FE07EFF090EC2A126307C004C005C006C00790EC21E0FEA3E0FFABB5
:205D600007AA06E4F9F8D007D006D005D00412621D90EC2A12631F90EC2A126307780112C9
:205D800062CD90EC2A12631F90EC23E0FFEFB4041C90EC2A12630778081262CD90FE0AEFEF
:205DA000F090EC2DE0FF90FE0BEFF0801A90EC2A12630778081262CD90FE0EEFF090EC2D52
:205DC000E0FF90FE0FEFF090EC20E0FF7E00E4FCFD90EC2A12631312619290EC2A12631F25
:205DE00090EC2A1263077B647A007900780012621D90EC2A12631F90EC2CE0FEA3E0FF90D4
:205E0000EC28EEF0A3EFF090EC23E0FFEFB4041D90EC28E0FEA3E0FFEEFF7E0090FE08EFD8
:205E2000F090EC29E0FF90FE09EFF0801B90EC28E0FEA3E0FFEEFF7E0090FE0CEFF090EC79
:205E400029E0FF90FE0DEFF090EC23E0FFEFB4041090FE06E0FFEF4480FF90FE06EFF08073
:205E60000E90FE07E0FFEF4480FF90FE07EFF090EC23E0FFEFB4041D90FC02E0FFEF440296
:205E8000FF90FC02EFF090FC12E0FFEF54FDFF90FC12EFF02290FC03E0FFEF4402FF90FC0D
:205EA00003EFF090FC13E0FFEF54FDFF90FC13EFF02290EC23E0FFEFB4042B90FC02E0FFE6
:205EC000EF54FDFF90FC02EFF090FC22E0FFEF54FDFF90FC22EFF090FC12E0FFEF4402FF0C
:205EE00090FC12EFF02290FC03E0FFEF54FDFF90FC03EFF090FC23E0FFEF54FDFF90FC236C
:205F0000EFF090FC13E0FFEF4402FF90FC13EFF022E709F608DFFA8046E709F208DFFA8080
:205F20003E88828C83E709F0A3DFFA8032E309F608DFFA8078E309F208DFFA807088828CFC
:205F400083E309F0A3DFFA806489828A83E0A3F608DFFA805889828A83E0A3F208DFFA804A
:205F60004C80D280FA80C680D4806980F28033801080A680EA809A80A880DA80E280CA8079
:205F80003389828A83ECFAE493A3C8C582C8CCC583CCF0A3C8C582C8CCC583CCDFE9DEE728
:205FA000800D89828A83E493A3F608DFF9ECFAA9F0EDFB2289828A83ECFAE0A3C8C582C86B
:205FC000CCC583CCF0A3C8C582C8CCC583CCDFEADEE880DB89828A83E493A3F208DFF98029
:205FE000CC88F0EF60010E4E60C388F0ED2402B4040050B9F582EB2402B4040050AF2323BD
:20600000458223905F6173BB010689828A83E0225002E722BBFE02E32289828A83E493222B
:20602000BB010B89828A83F8E0C828F0E822500327C722BBFE07F8E3C828F3E8228A83893E
:2060400082E49322BB010CE58229F582E5833AF583E0225006E92582F8E622BBFE06E92587
:2060600082F8E222E58229F582E5833AF583E49322BB010989828A83F8E028F0225003277F
:20608000F722BBFE05F8E328F3228A838982F8E4932822BB010689828A83F0225002F722E9
:2060A000BBFE01F322F8BB010DE58229F582E5833AF583E8F0225006E92582C8F622BBFEB6
:2060C00005E92582C8F222EF8DF0A4A8F0CF8CF0A428CE8DF0A42EFE22BC000BBE0029EFB6
:2060E0008DF084FFADF022E4CCF875F008EF2FFFEE33FEEC33FCEE9DEC984005FCEE9DFE9C
:206100000FD5F0E9E4CEFD22EDF8F5F0EE8420D21CFEADF075F008EF2FFFED33FD40079886
:206120005006D5F0F222C398FD0FD5F0EA22C5F0F8A3E028F0C5F0F8E582158270021583FB
:20614000E038F022A3F8E0C5F025F0F0E582158270021583E0C838F0E822BB0110E58229A2
:20616000F582E5833AF583E0F5F0A3E0225009E92582F886F008E622BBFE0AE92582F8E290
:20618000F5F008E222E5832AF583E993F5F0A3E99322E88FF0A4CC8BF0A42CFCE98EF0A439
:2061A0002CFC8AF0EDA42CFCEA8EF0A4CDA8F08BF0A42DCC3825F0FDE98FF0A42CCD35F087
:2061C000FCEB8EF0A4FEA9F0EB8FF0A4CFC5F02ECD39FEE43CFCEAA42DCE35F0FDE43CFC78
:2061E0002275F008758200EF2FFFEE33FECD33CDCC33CCC58233C5829BED9AEC99E58298DE
:20620000400CF582EE9BFEED9AFDEC99FC0FD5F0D6E4CEFBE4CDFAE4CCF9A88222B800C1BF
:20622000B90059BA002DEC8BF084CFCECDFCE5F0CBF97818EF2FFFEE33FEED33FDEC33FC77
:20624000EB33FB10D703994004EB99FB0FD8E5E4F9FA227818EF2FFFEE33FEED33FDEC3312
:20626000FCC933C910D7059BE99A4007EC9BFCE99AF90FD8E0E4C9FAE4CCFB2275F010EF6E
:206280002FFFEE33FEED33FDCC33CCC833C810D7079BEC9AE899400AED9BFDEC9AFCE899A4
:2062A000F80FD5F0DAE4CDFBE4CCFAE4C8F922EF4BFFEE4AFEED49FDEC48FC22EB9FF5F0B8
:2062C000EA9E42F0E99D42F0E89C45F022E8600FECC313FCED13FDEE13FEEF13FFD8F12274
:2062E000E86010ECA2E713FCED13FDEE13FEEF13FFD8F022E8600FEFC333FFEE33FEED3361
:20630000FDEC33FCD8F122E0FCA3E0FDA3E0FEA3E0FF22E0F8A3E0F9A3E0FAA3E0FB22EC9C
:20632000F0A3EDF0A3EEF0A3EFF022A8828583F0D083D08212634212634212634212634225
:20634000E473E493A3C583C5F0C583C8C582C8F0A3C583C5F0C583C8C582C822A42582F59F
:2063600082E5F03583F58322E0FBA3E0FAA3E0F922EBF0A3EAF0A3E9F022E493FB7401930E
:20638000FA740293F922D083D082F8E4937012740193700DA3A393F8740193F5828883E485
:2063A000737402936860EFA3A3A380DF8A838982E47390EC7EEFF090EC7FEDF090F86FE06B
:2063C000FFEFB4011190EC7EE0FF7D0012788A90EC82EFF0801590EC7EE0FF90EC7FE0FE7B
:2063E000EE04FD12788A90EC82EFF090EC82E0FFEF60037F012290EC7EE0FFEFC394B340DA
:20640000030267C790EC7EE0FFEFC39480507090EC7EE0FFEF12638664281164341264403C
:2064200014644C590000645690EC7FE0FD7F2012DA3F802290EC7FE0FD7F4012DA3F8016E9
:2064400090EC7FE0FD7F8012DA3F800A90EC7FE0FD7F0412DA3F90EC7FE0FFEF70167FF06C
:2064600012D2C090FA4DE0FFEFB401087F0112DCA87F002290EC7EE0FF12D2C00267C79022
:20648000EC7EE0FFEF126386649E8064AA8164B68264C28564CE8664DA87000064E490EC30
:2064A0007FE0FD7F4012DA3F803A90EC7FE0FD7F8012DA3F802E90EC7FE0FD7F2012DA3F8A
:2064C000802290EC7FE0FD7F0412DA3F801690EC7FE0FD7F0812DA3F800A90EC7FE0FD7F93
:2064E0000212DA3F90EC7EE0FFEF12638666318865008965AE9665C79765E39F000066E006
:2065000090FAC6E0FFEF20E70990FAC6E0FFEF30E34E90EC7FE0FFEF70030267C790EC8066
:20652000E4F090EC80E0FFEF9086EA93FFEF70030267C790EC80E0FFEF9086EA93FF12D259
:20654000C090FA4DE0FFEFB4010E90EC80E0FFEF04FF12DCA87F002290EC80E004F080C2FD
:2065600090EC7FE0FFEF70030267C790EC80E4F090EC80E0FFEF9086E193FFEF70030267C1
:20658000C790EC80E0FFEF9086E193FF12D2C090FA4DE0FFEFB4010E90EC80E0FFEF04FF08
:2065A00012DCA87F002290EC80E004F080C290EC7FE0FFEF700890FA60E4F00267C790FAD9
:2065C000607401F00267C790EC7FE0FFEF70030267C790FA60E0FFEF6401FF90FA60EFF075
:2065E0000267C790EC7FE0FFEF70030267C790EC80E4F090EC80E0FFEF9086EA93FFEF7074
:20660000030267C790EC80E0FFEF9086EA93FF12D2C090FA4DE0FFEFB4010E90EC80E0FF04
:20662000EF04FF12DCA87F002290EC80E004F080C290FAC6E0FFEF54EEFFEF60030266CE38
:2066400090EC7FE0FFEF704390EC80E4F090EC80E0FFEF9086F593FFEF602D90EC80E0FF30
:20666000EF9086F593FF12D2C090FA4DE0FFEFB4010E90EC80E0FFEF04FF12DCA87F00227E
:2066800090EC80E004F080C57F012290EC80E4F090EC80E0FFEF9086F093FFEF602D90EC19
:2066A00080E0FFEF9086F093FF12D2C090FA4DE0FFEFB4010E90EC80E0FFEF04FF12DCA885
:2066C0007F002290EC80E004F080C57F012290FAC6E0FFEF5422FFEF600690EC7E7484F098
:2066E00090EC7EE0FFEF2480FFEF25E0FF90EC80EFF090EC81E4F090EC80E0FFEF90867937
:2067000093FFEF70030267C790EC81E0FFEFC3940240030267C790EC7FE0FFEF602990ECF0
:2067200080E0FFEF90867993FF12D2C090FA4DE0FFEF640160030267B890EC81E0FFEF04E9
:20674000FF12DCA87F002290EC80E0FFEF90867993FFEFB4E02090EC80E0FFEF9086799389
:20676000FF12D2C090FA4DE0FFEF6401704A7F0112DCA87F00227FF012D2C090FA4DE0FF32
:20678000EFB4010E90EC81E0FFEF04FF12DCA87F002290EC80E0FFEF90867993FF12D2C0B3
:2067A00090FA4DE0FFEFB4010F90EC81E0FFEF2402FF12DCA87F002290EC80E004F090ECFD
:2067C00081E004F00266F77F012290ED0EEFF090ED0EE0FF90F9D5E0FEEE6F60030268B871
:2067E00090F9D9E0FFEF70030268A290F9C3E0FFEF6403705B90FA08E0FF90ED0EE0FB7D4A
:206800000212C32F90FEE17401F090FEE0E0FFEF540FFF90F9D6E0FEEF4EFF90FEE0EFF03A
:2068200012E81890F9D574FFF090F9C274FFF090F9F0E4F090F9F2E4F090F9E5E4F090F970
:20684000D8E4F090F9D9E4F07D027F0112E2FC2290ED0EE0FD7F02126BB290F783E0FFEF55
:20686000131313541FFFEF30E003026BB190F9D9E0FFEF6003026BB190F9D5E0FFEF64FF0D
:206880006003026BB190F9D6E0FFEF547FFF90F9D6EFF090FEE0E0FFEF547FFF90FEE0EFCF
:2068A000F0227F0A12E0A77F5512E0A77F0A12E0A790FEE17401F02290FADDE0FFEF603555
:2068C00090FADDE014F090FEE17401F090FADDE0FFEF6003026BB17D027F0112E2FC90FE66
:2068E000E0E0FFEF540FFF90F9D6E0FEEF4EFF90FEE0EFF02212E49990F9F47402F090F9A5
:20690000C3E0FFEF6403702C90FADEE0FFEF600E90FEE0E0FFEF540FFF90FEE0EFF090FACA
:2069200008E0FF90ED0EE0FB7D0212C32F90FEE17401F02290F9E6E0FFEF20E003026BAB39
:2069400090FC80E0FFEF30E503026B6E90F9E0E0FFEFC4540FFFEF5403FFEFB4020312C747
:20696000B990ED0EE0FF90F9F3EFF090F9F57403F07F0A12E8BE90F9F0E0FFEF6003026A5D
:206980003090FA08E0FFEF5407FF90ED0EE0FE74EB2EF582E434F9F583EFF090ED0FE4F0D8
:2069A00090ED0FE0FFEFC39404502690FA08E0FF90ED0FE0FE74EB2EF582E434F9F583E064
:2069C000FEEF4EFF90FA08EFF090ED0FE004F080CF90F9D5E0FFEFB4FF3A90FADEE0FFEF0E
:2069E000702490ED0EE0FF7410A807088002C333D8FCFF90FEE0E0FEEE540FFEEF4EFF90AC
:206A0000FEE0EFF0800E90FEE0E0FFEF540FFF90FEE0EFF090FA08E0FF90ED0EE0FB7D02EA
:206A200012C32F90F9F0E004F090FEE17401F02290F9F0E004F090ED0EE0FF746D2FF582D1
:206A4000E434FAF583E0FFEF5470FFEFC4540FFF90F9F0E0FEEF6E6003026B157D027F016E
:206A600012E2FC90F9F5E4F090F9D5E0FFEFB4FF2E90FADEE0FFEF701890FEE0E0FFEF5479
:206A80000FFF90F9D6E0FEEF4EFF90FEE0EFF0800E90FEE0E0FFEF540FFF90FEE0EFF09019
:206AA000F9F1E0FF90F9F0E0FEEE6F601D90FA08E0FF90ED0EE0FB7D0212C32F90ED0EE017
:206AC000FB7D027F0012C32F803F90F9C5E0FFEFB4022790ED0EE0FF746D2FF582E434FAFE
:206AE000F583E0FFEF5478FFEFB4400E90FA08E0FFEF540FFF90FA08EFF090FA08E0FF9060
:206B0000ED0EE0FB7D0212C32F90F9F0E4F090FEE17401F02290F9D5E0FFEFB4FF3A90FA36
:206B2000DEE0FFEF702490ED0EE0FF7410A807088002C333D8FCFF90FEE0E0FEEE540FFE8A
:206B4000EF4EFF90FEE0EFF0800E90FEE0E0FFEF540FFF90FEE0EFF090FA08E0FF90ED0E37
:206B6000E0FB7D0212C32F90FEE17401F02290FA08E0FF90F9E1EFF090ED0EE0FFEFC433B7
:206B80003354C0FFEF4420FF90F9E0EFF090F9D5E0FFEFB4FF0E90FEE0E0FFEF540FFF90FA
:206BA000FEE0EFF090FEE17401F02290FEE17401F02290ECEAEFF090ECEBEDF090F9F5E045
:206BC000FFEF6401705090FA08E0FFEF64FE603190FA08E0FFEF64FC602790FA08E0FFEFA8
:206BE00064FA601D90FA08E0FFEF64EE601390FA7DE0FFEF6401600990FAC2E0FFEFB40123
:206C00000890ECEC7401F0803C90ECECE4F090FEE17401F0802F90F9F5E0FFEFB402209072
:206C2000FA08E0FFEFB4FA1790F9D8E0FFEF6404600D90ECECE4F090FEE17401F080069095
:206C4000ECEC7401F090ECECE0FFEF64016003026F9590FA08E0FFEF64FC600990FA08E058
:206C6000FFEFB4FE3290F9F5E0FFEFB4012990F9F2E0FFEFB4011990F9DAE0FFEF540FFF6E
:206C800074DC2FF582E434F9F58374FEF012E81890F9D9E4F0800690F9D9E014F090F9D5A1
:206CA000E0FF746D2FF582E434FAF583E0FFEF20E71D90F9C2E0FFEFB4FF1490ECEAE0FFCD
:206CC000EF6402705590F88BE0FFEF6402704B90F9F5E0FFEFB4FF2290F9F2E0FFEF6401C9
:206CE000603290F9DAE0FFEF540FFF74DC2FF582E434F9F58374FAF0801A90FA08E0FF90F7
:206D0000F9DAE0FEEE540FFE74DC2EF582E434F9F583EFF090F9DAE004F090F9D9E0FFEFAF
:206D20006003026F2990F9F5E4F090ECEAE0FFEFB4011790F9E5E0FFEFB4010690F9E5742B
:206D400002F07F0112E0F4026E2390F9C2E0FFEF64FF601490F9D574FFF090F9C274FFF0E9
:206D600090F9F0E4F0026E2390F9F2E0FFEFB4010690F9F27402F090F9C7E0FFEF6401606B
:206D800003026E1E90FA08E0FFEF6403704290F9D5E0FF746D2FF582E434FAF583E0FFEFCD
:206DA0005487FFEFF090F9D5E0FF746D2FF582E434FAF583E0FFEF4440FFEFF090F9F174AE
:206DC00004F090F9C5E0FFEF700690F9C57401F090FA08E0FFEF6404704490F9D5E0FF744D
:206DE0006D2FF582E434FAF583E0FFEF5487FFEFF090F9D5E0FF746D2FF582E434FAF58321
:206E0000E0FFEF4448FFEFF090F9F17404F090F9C5E0FFEF6402600690F9C57402F07F023B
:206E200012E0F490F9D5E0FFEF64FF602290F9E5E0FFEFB4020690F9E57403F090F9F2E033
:206E4000FFEFB4020690F9F27403F012C6472290F9C7E0FFEFB4012390F9C7E4F090F9C5FD
:206E6000E0FFEFB4020690F9DD7404F090F9C5E0FFEFB4010690F9DD7403F090F9F2E0FFBC
:206E8000EF700B90F9E5E0FFEF700312E81890FEE0E0FFEF540FFF90FEE0EFF090ECEAE096
:206EA000FF90FABFEFF090ECEBE0FF90FAC0EFF090FC86E0FFEF20E02A90F9DBE0FF74DC9F
:206EC0002FF582E434F9F583E0FF90ECEAE0FD90ECEBE0FB12C32F90F9DBE004F090F9DA80
:206EE000E014F090F9F2E0FFEF6403600990F9E5E0FFEFB4031C90FEE0E0FFEF540FFF9058
:206F0000F9D6E0FEEF4EFF90FEE0EFF090FEE17401F090F9F2E4F090F9E5E4F090F9D8E491
:206F2000F07D027F0112E2FC2290F9F2E0FFEF6401600A90F9E5E0FFEF6401704C90F9F55D
:206F4000E0FFEF6401704290F9DBE0FF74DC2FF582E434F9F583E0FF90ECEAE0FD90ECEB01
:206F6000E0FB12C32F90ECEAE0FF90FABFEFF090ECEBE0FF90FAC0EFF090F9DAE014F012FD
:206F8000E8187D027F0112E2FC90F9F57402F090FEE17401F0220000000000000000000028
:206FA000000000000000000000000000FC20FC10FC60FC00FC50FC40FC30FF30FF40FF50E0
:206FC000FF60FC21FC11FC61FC01FC51FC41FC31FF31FF41FF51FF61FC22FC12FC62FC026F
:206FE000FC52FC42FC32FF32FF42FF52FF62FC23FC13FC63FC03FC53FC43FC33FF33FF43F6
:20700000FF53FF63FC24FC14FC64FC04FC54FC44FC34FF34FF44FF54FF64FC25FC15FC65AD
:20702000FC05FC55FC45FC35FF35FF45FF55FF65FC26FC16FC66FC06FC56FC46FC36FF36C9
:20704000FF46FF56FF66FC27FC17FC67FC07FC57FC47FC37FF37FF47FF57FF67FC28FC185C
:20706000FC68FC08FC58FC48FC38FF38FF48FF58FF68FC29FC19FC69FC09FC59FC49FC392D
:20708000FF39FF49FF59FF69FC2AFC1AFC6AFC0AFC5AFC4AFC3AFF3AFF4AFF5AFF6AFC2BCB
:2070A000FC1BFC6BFC0BFC5BFC4BFC3BFF3BFF4BFF5BFF6BFC2CFC1CFC6C00000000000086
:2070C000FC3C0000000000000000FC2DFC1DFC6D000000000000FC3D000000000000000094
:2070E000FC2EFC1EFC6E000000000000FC3E0000000000000000FC2FFC1FFC6F00000000F7
:207100000000FC3FFF3CFF4CFF5CFF6C000000000000000000000000FED100000000000019
:207120000000000000000000000000000000FED30000000000000000FED2000000000000AE
:2071400000000000F6320000000000000000FED400000000000000000000F633000000000C
:207160000000000000FF0000000000000000000000000000000000000000FF180061FF1584
:207180000005FF100000FF110000FF120000FF130000FEA40000FE900020FE910030FE9209
:2071A00000FFFE93002CFE940020FE9500FDFCA10000000000000000000000FF00004000F5
:2071C0000000000000001900000000006D030000000061041B02000000004B005A045B029E
:2071E00020040000000000000000000000000000000000000000000000000000000000006B
:207200000000000000000000000000000000000000000000000000004C0E4D0E00000000B9
:20722000520E530E1F001E0A00FF90FA0AE0FFEF54FDFF90FA0AEFF090FA06E0FFEFB4020E
:207240001290FA07E0FFEF20E70990F9D5E0FFEFB4FF0B90FADDE0FFEF70030274B97D026D
:207260007F0112E2FC90FADDE0FFEF604D90FA0AE0FFEF1313543FFFEF30E0217F5412E0BD
:20728000A790FADDE4F090FEE0E0FFEF540FFF90F9D6E0FEEF4EFF90FEE0EFF0227F3212C3
:2072A000E8BE90EC6FE0FFEF640160030274B97F4312E0A77F2C12E0A72290F9D5E0FF7406
:2072C00010A807088002C333D8FCFF90FEE0E0FEEE540FFEEF4EFF90FEE0EFF090F9D8E037
:2072E000FF90F9D9EFF090FA0AE0FFEF1313543FFFEF20E00302749B7F5412E0A790FA0A31
:20730000E0FFEF54FBFF90FA0AEFF090F9D5E0FF746D2FF582E434FAF583E0FFEF5407FF68
:2073200090ED2AEFF090F9D5E0FFEF600890F9D5E0FF12A18F90F9D5E0FF90FA00E0FEEE21
:20734000B5070690FA0074FFF090FA6AE0FFEF700A90ED2AE0FFEF6401601C90FA6BE0FF18
:20736000EF700A90ED2AE0FFEF6402600A90F9C2E0FFEF64FF606190F9D574FFF090FEE0F3
:20738000E0FFEF540FFF90FEE0EFF012E81890ED2AE0FFEFB401077FFC12E8D2801D90F9C0
:2073A000C2E0FFEF64FF600E90FC80E0FFEF4404FF90FC80EFF07FFE12E82690F9DBE0047B
:2073C000F090F9D9E4F090F9F2E4F090F9E5E4F090F9D8E4F002747C90ED2AE0FF12E0F463
:2073E00090F9D5E0FFEF64FF600612C64702747C90F9F2E0FFEF705A90F9E5E0FFEF705276
:2074000090FEE0E0FFEF540FFF90FEE0EFF012E81890ED2AE0FFEFB4011690F9DBE0FF7478
:20742000DC2FF582E434F9F583E0FF12E8D2801490F9DBE0FF74DC2FF582E434F9F583E060
:20744000FF12E82690F9DBE004F090F9DAE014F0801690FEE0E0FFEF540FFF90F9D6E0FE1D
:20746000EF4EFF90FEE0EFF090F9F2E4F090F9E5E4F090F9D8E4F090F9D9E4F090FA00E01D
:20748000FFEF64FF703390FA70E0FFEF5407FFEF6402602590FA7074B2F02290EC6FE0FF00
:2074A000EFB4010A7F4312E0A77F2C12E0A790F9F57401F07F7812E8BE2290ECC3E4F09028
:2074C000ECC3E0FFEFC3940840030275A590ECC3E0FF74572FF582E434FAF583E0FFEF6426
:2074E000FF700302759C90FA4DE0FFEF600302759C90ECC4E4F090ECC4E0FFEFC39408501B
:207500002E90ECC4E0FF744E2FF582E434FAF583E0FF90ECC3E0FE74572EF582E434FAF5B9
:2075200083E0FEEE6F600890ECC4E004F080C790ECC4E0FFEF6408706390ECC3E0FF7443A8
:207540002FF582E434FAF583E0FF7D001263B290ECC5EFF090ECC3E0FF74432FF582E434C5
:20756000FAF583E0FF90FA5FE0FEEEB5071390FA5FE4F090FCA3E0FFEF54FBFF90FCA3EF10
:20758000F090ECC5E0FFEFB4011290ECC3E0FF74572FF582E434FAF58374FFF090ECC3E08A
:2075A00004F00274BF90ECC3E4F090ECC3E0FFEFC39408400302770990ECC3E0FF744E2F4F
:2075C000F582E434FAF583E0FFEF64FF700302770090FA4DE0FFEF600302770090ECC4E4E8
:2075E000F090ECC4E0FFEFC39408502E90ECC4E0FF74572FF582E434FAF583E0FF90ECC378
:20760000E0FE744E2EF582E434FAF583E0FEEE6F600890ECC4E004F080C790ECC4E0FFEF8F
:207620006408600302770090ECC4E4F090ECC4E0FFEFC39408400302770090ECC4E0FF7432
:20764000572FF582E434FAF583E0FFEF64FF60030276F790ECC3E0FF744E2FF582E434FA08
:20766000F583E0FF12A06090ECC6EFF090ECC6E0FF7D011263B290ECC5EFF090ECC5E0FF7A
:20768000EF6401707B90ECC3E0FF744E2FF582E434FAF583E0FF90ECC4E0FE74572EF5822E
:2076A000E434FAF583EFF090ECC6E0FF90ECC4E0FE74432EF582E434FAF583EFF090ECC61B
:2076C000E0FF90FA5FEFF090FCA3E0FFEF4404FF90FCA3EFF0C2AF90F982E0FFEF54FBFF19
:2076E00090F982EFF0D2AF90FA65E0FFEF54FBFF90FA65EFF0800990ECC4E004F002762C05
:2077000090ECC3E004F00275AA2290EC5A12637190EC5A126368126007FF90EC5DEFF090E4
:20772000EC5EE4F090EC5DE0FFEF70030277F590EC5DE0FFEF6401704F90EC5F740FF0A3E7
:2077400074A0F090FC86E0FFEF30E01790EC5F74FF75F0FF12612E90EC5FE0FEA3E0FFEFA1
:207760004E70E090EC5EE0FF7E00EF2401FFEE3400FE90EC5A1263688F828E83126044FF77
:207780007B007D0112C32F2290EC5DE0FFEF606590EC5EE0FF7E00EF2401FFEE3400FE9064
:2077A000EC5A1263688F828E83126044FFEF64FF602090EC5EE0FF7E00EF2401FFEE340091
:2077C000FE90EC5A1263688F828E83126044FF12D2C090FA4DE0FFEFB4010C90EC5EE0FF5E
:2077E000EF04FF12DCA82290EC5EE004F090EC5DE014F080932290FA66EFF090FA67F0226D
:20780000C082C08390FEA0E0D083D082547F6003C39403C4C0E074DAC0E0C082C08302DAED
:2078200000C082C08390FEA0E0D083D082547F6003C39403C4C0E074DAC0E0C082C08302A7
:20784000DA10C082C08390FEA0E0D083D082547F6003C39403C4C0E074DAC0E0C082C0839F
:2078600002DA20C082C08390FEA0E0D083D082547F6003C39403C4C0E074DAC0E0C082C0F0
:207880008302DA30EFC490DA00739039AB0142900C9A0142903F920142901F7301219039E8
:2078A00006014290244401639033590163902AFE01429033B40163903FD9014290204301EE
:2078C00021903FB301429023070163901F44016390318301639027F901429034E901429032
:2078E00035E601429018F601639034080163902408012190145F016390267E012190219F0D
:20790000012190269E012190244701219026F901219027560121901A3B0121901E83012158
:2079200090278A01219017BE012190214A0121902298012190253701219025A20121900BB2
:207940003001219024C101219020F4012190238301219026DD0121901D850121900446013C
:2079600021902783012190263101219026BE012190260201219023C601219025700121909F
:20798000278F01219024FD0121903FD401429032700163903FBE01429035EF0163903C1EEE
:2079A0000142903F7101429033DD014290176101429031BB0142902DDC01429035AA016365
:2079C0009035C401639024850121900FB80121903FE40142903F350142903F5E0142903574
:2079E000F70163903DBC0142901B23016390345B01639035FB01639032CE014290264101BC
:207A00004290217901429027240121901C5D01219022450121903F050142903CB001429010
:207A2000189701219029800142903F9D014290271001219016E0012190277B01210074FFF2
:207A400090EC04F0A3F0E4A3F090FBFCE0FF600A90EC06F090FBFC7404F0E490F69EF090F3
:207A6000FA06E064026003027C0D90FADDE06003027C0D90FA05E054FDF074FF90EC04F00A
:207A8000A3F090FC86E030E37990EC6FE0B401127F0A12E0A77F4912E0A790FA01E0FF1244
:207AA000D56290FA07E020E70312C44190FA01E0FF12C6C490EC03EFF0BFFF03E4803790AD
:207AC000EC03E0702D90FA07E020E71DE490F9C0F090FA01E0FFC4540F75F003A4243AF598
:207AE00082E434CD12A45A801190FA05E04402F0800890EC03E090F9C1F0E490F874F002E6
:207B00007BCEE490EC03F090F9C0E0700690F9C1E0605090EC6FE0B401057F44127C2390C7
:207B2000EC0374FFF090F9C1E0702890FA07E020E71E90FA02E0FF90F9C0E0FEC4540F756D
:207B4000F003A4246AF582E434CD12A45A027BCE027BC790FA02E0FF12C73F90F9C1EFF059
:207B6000027BCE90EC6FE0B401057F56127C2390FA07E020E72F7D027F0112E2FC90F9DBB5
:207B8000E0700690F9DAE0601C90F9F2E0700D90F9E5E0700712A405A37401F0E490F9DB28
:207BA000F090F9DAF090FA02E0FF12B0FB90F86EEFF0701A90FA07E020E70CE490F9EF1209
:207BC000A4D512E31B800790FA05E04402F090EC04E0F47003A3E0F4600F90EC05E0FF9053
:207BE000FAC1E0FDE4FB12C32F90FA05E0FFC31320E01A90FC86E030E302800E90F9D5E0D9
:207C0000F4600790EC03E0B4FF0312E81890EC06E0FF600E90FBFCE0B40407EFF0E490ECAE
:207C200006F02212E0A790FA02E0FF12D56222EF1263867C55A47C63A57C7AA67C8BA77C14
:207C4000BAA87DF2A97D0BAA7E03AB7D6FAD7D7EAE00007E1990F9F7E07E0060037FFA2297
:207C60007FF12290F9F77401F0E490F9F9F090F9FAF090F9C0EFF0027E1990F9F7E060063D
:207C800090F9F87401F07EFF7FFF2290F9C2E0B4FF0990FC80E04420027D7590F9C2E0FF8C
:207CA000246D12A3F1540764026003027E1912A4DD8002C333D8FC4E804790F9C2E0F4704D
:207CC0002290FC80E054DFF0E0FF12BD3590F9E0E0FFC4540364026003027E1912A4E8F03D
:207CE000027DED90F9C2E0FF246D12A3F1540764026003027E1912A4DD8002C333D8FCF427
:207D00005E90F9C4F090FC80027D7690FC80E04410F0E04420F0E0FF12BD35E490F9E6F03D
:207D200090EC07F090EC07E0FFC39404501E746D2F12A3F1FF5407FEBE020990EC0712A396
:207D4000DF4430F090EC07E004F080D812A423E490F9F4F012A46F90F9E0F090FC86E05443
:207D6000FDF0E490F9D7F090F9FBF0FE7F552290FC80E04410F0E0FF12BD35027E1990FC42
:207D800080E054EFF090F9EFE0700A90FC80E0FF12BD35804CE490EC07F090EC07E0FFC347
:207DA0009404502F746D2F12A3F15407FFBF011B90EC0712A48D8002C333D8FCFCF4FE9031
:207DC000FEE0E05EF090F9D6E04CF090EC07E004F080C790F9E0E0700512A47C800312C732
:207DE000B990F9E0E0FFC454036401702C12C7B980277F0212E6D290EC07EFF0BF0402803B
:207E00000F80127F0112E6D290EC07EFF0BF04057E007FFF22E4FEFF2212A4CEFEFF2290F9
:207E2000EC14E0FCA3E0FDA3E0FEA3E02278102410FFE434D0FEE43401FDE433FC0262E0B2
:207E4000FFE4FCFDE0F8A3A3A3E02FFFEA3EFEED39FDEC38FC78081262CDAD07E022FF7820
:207E6000081262F490EC12A804A905AA06AB07E0FFE4FCFDFEEB2FFFEE3AFEED39FDEC3808
:207E8000FC2275F010A4FFE42FFFE5F034D0FEE43401FDE433FC0262E090EC0CE4FCFDE011
:207EA000F8A3E0F9A3E0FAA3E02FFFEA3E222400FFEE3408FEE43DFDE43C227D017BFF7EB5
:207EC000007F02125FE190F60EE022E490EC0CF0A3F0A3F0A3F022FF78100262CDFEED342B
:207EE00001FDE43CFC02631F780834D0FEE43401FDE433FC0262E034F5FA90ED02EBF0A3D5
:207F0000EAF0A3E9F022E0FD90EC03E0FC2FF582E43EF583E49322AF03E4FCFDFE02631FC7
:207F200090EC10E0FEA3E022C313FF24ACF582E434F6F58322EFF0A3EDF090F60EE02290E9
:207F4000EC04E0FBA3E0FAA3E0F902600790EC0CE004F022F582E434F6F583E090ECD6F057
:207F600022E0FF90F643E06F22F582E434FCF58322F582E434FCF58322F582E434FCF58379
:207F800022FB90ECD674A5F02290EC09E004F0E0C3941022EFF090F60EE02290F643F090C7
:207FA000F64104F02290F6A1F0E490F643F02290F494E07B012400F922F583EBF090EC0319
:207FC000E0FC22EF25E0FF7403A80708222400FFEE34F0222400FFEE34E022FF90EC11E056
:207FE000FEEF2EFB22E4FB7DD07F0122C0E0C083C08290F984E04408F0D082D083D0E032A6
:2080000002403002E5527EFF7FFF2202D3A87EFF7FFF2202E56812A4952222027FEC12A4FD
:20802000BF223202E48190ECF6EFF090ECF6E0FF800090ECF7E4F0A3E4F090ECF7E0FEA3F2
:20804000E0FF2202E5BD02D0D0323202802202D26E323202D21C02D3F4222202804902D68B
:20806000C3222202DE3802BC8B222202804A7FFF2222220280517FFF2222220280527FFF9B
:2080800022222202E5D17FFF22220002E5E57FFF22000002CA047F0022000002B01C7F00D6
:2080A00022000002E57E7F0022000002E5937FFF22000002E4017F0022000002E41B7FFF77
:2080C00022000002E5F97FFF22000002DE967F0022000002E60D7F0022000002E6217F00C9
:2080E00022000002E6357F0022000002E6497FFF22000002E65D7F0022000002E67190ED13
:2081000012EFF090ED12E0FFEF12638681190082060182B202000082E790FF0DE0FF90F851
:2081200098EFF090FF0CE0FF90F899EFF07F4412E0A77F4512E0A77F4512E0A77F5012E077
:20814000A7129B3C12E46812E44F7F0012DD4190F609E0FFEF131313541FFFEF20E0137FB4
:208160003012E23690FF0CE0FFEF4404FF90FF0CEFF0C2AF90FEA5E0FFEF549FFF90FEA5E4
:20818000EFF090F55474A5F012E809D2AF7F5712E0A77F4112E0A77F4B12E0A77F4512E0B9
:2081A000A712DD0F90FEA5E0FFEF4440FF90FEA5EFF0C28C438602E58954F0FFEF4401F591
:2081C00089758A3B758CF6C28DD2A9D28C90F898E0FF90FF0DEFF090F899E0FF90FF0CEFB9
:2081E000F07F0012E7CB12CC1390ED13EFF012901890FF01E4F090F554E4F07F2012E23658
:2082000090FF01E4F02290FF01E0FFEF643360030282E790FF0DE0FF90F898EFF090FF0C00
:20822000E0FF90F899EFF07F021282E87F4912E0A77F4412E0A77F4C12E0A77F4512E0A7E4
:2082400012808190FE95E0FFEF547FFF90FE95EFF090FEA774A3F090FEA57405F090F55495
:208260007433F0E58754FCFFEF4401F58790FE95E0FFEF4480FF90FE95EFF090FEA7E4F03D
:2082800090FEA57464F07F5712E0A77F4112E0A77F4B12E0A77F4512E0A790F898E0FF90CC
:2082A000FF0DEFF090F899E0FF90FF0CEFF012A5042290FF1174FFF07F011282E890FE955A
:2082C000E0FFEF547FFF90FE95EFF090FEA774A3F090FEA57405F0438740C2AF90F554745C
:2082E000A5F043860180FE2290ED14EFF090F896E4F090ED14E0FFEFB4021090F89674AABC
:20830000F090FF20E0FF90F86AEFF090FC80E0FF90F850EFF090FCA3E0FFEF54FBFF90F899
:2083200052EFF090FCA0E0FF90F853EFF090FE20E0FF90F857EFF090FE30E0FF90F858EF90
:20834000F090FE50E0FF90F855EFF090FE80E0FF90F856EFF090FF04E0FF90F854EFF0904D
:20836000FE9DE0FF90F867EFF090FEC0E0FF90F868EFF090FE95E0FF90F869EFF090FEE079
:20838000E0FF90F851EFF090FC92E0FF90F86BEFF090ED15E4F090ED15E0FFEFC3940C50FE
:2083A0002A90ED15E0FF74302FF582E434FFF583E0FF90ED15E0FE745A2EF582E434F8F582
:2083C00083EFF090ED15E004F080CB90FF95E0FF90F859EFF090F866E5A8F090FF0CE0FFE2
:2083E000EF54F7FF90FF0CEFF090ED14E0FFEFB4020E90FF20E0FFEF4407FF90FF20EFF052
:2084000090FC80E0FFEF4410FF90FC80EFF090FC80E0FFEF4420FF90FC80EFF090FC80E030
:20842000FF12BD3590FEE0E4F0C28390FCA3E4F090FCA0E0FFEF54FCFF90FCA0EFF090FECD
:2084400020E4F090FE30E4F090FE50E4F090FE80E0FFEF5480FF90FE80EFF090FE9DE0FF3E
:20846000EF54FCFF90FE9DEFF090FEC0E4F090FE95E0FFEF54EFFF90FE95EFF0C28612E41F
:208480004F90FF04E0FFEF54FCFF90FF04EFF090ED15E4F090ED15E0FFEFC3940C50199049
:2084A000ED15E0FF74302FF582E434FFF583E4F090ED15E004F080DC90FF95E4F090FEA343
:2084C000E0FFEF543FFF90FEA3EFF075A8802290F97BE0FFEF600302867290F97AE0FFEF6D
:2084E00054A0FFEF700302867890FF80E0FFEF4401FF90FF80EFF090F97AE0FFEF20E5033F
:2085000002863990FF93E0FFEF5430FFEF6430600302866390F97AE0FFEF54DFFF90F97A50
:20852000EFF090F979E0FFEF701190F97AE0FFEF547FFF90F97AEFF002866390F940E0FFF3
:20854000EF30E71E90F485E0FF90FFBDEFF090F486E0FF90FFBEEFF090F487E0FF90FFBF97
:20856000EFF090FF93E0FFEF54FCFF90ECF5EFF090ECF5E0FF90F941E0FE7401A8060880EA
:2085800002C333D8FCFEEF4EFF90ECF5EFF090ECF5E0FF90FF93EFF090F942E0FF90FF9B60
:2085A000EFF090F943E0FF90FF9AEFF090F945E0FF90FFBCEFF090F945E0FF90ECF4EFF056
:2085C00090F945E0FFEFD39408400690ECF47408F090ECF3E4F090ECF4E0FF90ECF3E0FE8F
:2085E000EEC39F502A90ECF3E0FF74462FF582E434F9F583E0FF90ECF3E0FE749C2EF58299
:20860000E434FFF583EFF090ECF3E004F080C790FF99E4F090F944E0FF90FF98EFF090F92B
:208620007CE4F090F97AE0FFEF4480FF90F97AEFF090F97B740DF0802A90F97AE0FFEF4440
:2086400060FF90F97AEFF0C2AF90F986E0FFEF4404FF90F986EFF0D2AF90FF98E4F090FF4B
:2086600099E4F090FF80E0FFEF54FEFF90FF80EFF02290F97BE014F022120014001100020C
:20868000007F005900E014E011E07CE114E070E06CE07DE071E069E07AE075E06BE072E00D
:2086A00074E04AE05A000000007700E037E03FE05EE01FE027E02FE07EE032E021E04DE064
:2086C00015E03BE034E023E050E048E02BE040E010E03AE038E030E028E020E01877000027
:2086E00000E11477E1F014F07700E07EE0F07E00E012E07C00E0F07CE0F01200FF43413FD8
:208700003D3B3C58644442403E0F295965382A701D10025A66712C1F1E11035B672E2D2003
:208720001205045C68392F211413065D693130232215075E6A7232241608095F6B3325172C
:20874000180B0A606C34352627190C616D7328741A0D626E3A361C1B752B637655567778B7
:20876000797A0E7B7C4F7D4B477E7F6F5253504C4D480145574E514A374946543D6C3E7565
:20878000467D457C3C6B437344744D7B3B6942724B7A4C793A7049714A94B3B3B3B3B3B322
:2087A000B3B3B3B3B3B3B3B3B3B3B3B3908C918B928F938E077E8A88B3B3B3B3B3B3B3B3AC
:2087C000B3B3B3B3B3B3B3B3B3B3B3B3B3B3B3B3B3B3B3B3B3B3B3B3B3B3B3B3B3B3B3B339
:2087E000B3B3B3B3B3B3B3B3B3B3B3B33D8B6C3E9075468C7D4594943C916B4373734493AA
:20880000744D7C7C3B8E694292724B8F7A4C7B7B3A8A70498D714A79795A9595B3B3B390AD
:20882000ECEDEFF090ECEEEDF090FEE1E0FFEF54F0FF90F9D4EFF090FC80E0FFEF20E6039A
:2088400002897290ECEDE0FFEF701E90FA08E0FF12E1F290F9DAE0FEEE540FFE74DC2EF5FD
:2088600082E434F9F583EFF02290FA08E0FFEF64F0600302890B90F9E27480F090ECEEE0A6
:20888000FFEF60030289C190FC80E0FFEF20E47490F9D5E0FFEF64FF706A90F9EF7403F0A1
:2088A00090ECEFE4F090ECEFE0FFEFC39404504290ECEFE0FF746D2FF582E434FAF583E018
:2088C000FFEF5407FFEFB4012190ECEFE0FF7410A807088002C333D8FCFFEFF4FF90FEE06B
